:020000040800F2
:1000000008230124390400084D8600083D780008C3
:10001000698200080D2A000877AD00080000000082
:10002000000000000000000000000000790300084C
:100030006939000800000000D5030008DD960008BB
:100040005704000857040008570400085704000824
:100050005704000857040008570400085704000814
:100060005704000857040008570400085704000804
:1000700057040008570400085704000857040008F4
:100080005704000857040008570400088D39000879
:1000900057040008570400085704000857040008D4
:1000A00057040008570400085704000857040008C4
:1000B00057040008570400085704000857040008B4
:1000C00057040008570400085704000857040008A4
:1000D00057040008DDA7000857040008570400086B
:1000E00057040008570400080000000057040008E7
:1000F0005704000857040008570400085704000874
:100100005704000857040008570400085704000863
:10011000570400085704000857040008999800087D
:100120005704000857040008570400085704000843
:100130005704000857040008570400085704000833
:1001400000000000000000000000000000000000AF
:100150005704000857040008570400085704000813
:100160005704000857040008570400085704000803
:100170005704000857040008570400080000000056
:1001800057040008570400085704000857040008E3
:1001900057040008570400085704000857040008D3
:1001A00057040008570400085704000857040008C3
:1001B00057040008570400085704000857040008B3
:1001C00057040008570400085704000857040008A3
:1001D0005704000857040008570400085704000893
:1001E0005704000857040008570400085704000883
:1001F0005704000857040008570400085704000873
:100200005704000857040008570400085704000862
:100210005704000857040008570400085704000852
:1002200057040008570400085704000800000000A5
:100230005704000857040008000000005704000895
:100240005704000857040008570400085704000822
:100250005704000857040008570400085704000812
:100260005704000857040008570400085704000802
:100270005704000857040008570400080000000055
:100280005704000857040008570400080000000045
:10029000000000005704000800F002F800F05CF8CD
:1002A0000AA090E8000C82448344AAF10107DA45D1
:1002B00001D100F051F8AFF2090EBAE80F0013F0C7
:1002C000010F18BFFB1A43F00103184700DA0000C2
:1002D00020DA00000A444FF0000C10F8013B13F044
:1002E000070408BF10F8014B1D1108BF10F8015B8F
:1002F000641E05D010F8016B641E01F8016BF9D182
:1003000013F0080F1EBF10F8014BAD1C0C1B09D1D8
:100310006D1E58BF01F801CBFAD505E014F8016B4A
:1003200001F8016B6D1EF9D59142D6D370470000DC
:100330000023002400250026103A28BF78C1FBD8EE
:10034000520728BF30C148BF0B6070471FB50DF082
:10035000C0F81FBD10B510BD00F01CFA1146FFF724
:10036000F5FF0BF087F900F03AFA03B4FFF7F2FF5C
:1003700003BC00F03DFA00002C4B19680868B0E897
:10038000F04F80F30988BFF36F8F4FF0000080F3C8
:10039000118870470000000008480068006880F37A
:1003A00008884FF0000080F3148862B661B6BFF38E
:1003B0004F8FBFF36F8F00DF00BF00BF08ED00E07D
:1003C000DFF80C00016841F470010160704700BF64
:1003D00088ED00E0EFF30980BFF36F8F134B1A68CD
:1003E0001EF0100F08BF20ED108A20E9F04F1060BA
:1003F00009B44FF0500080F31188BFF34F8FBFF363
:100400006F8F0CF02BF94FF0000080F3118809BCBE
:1004100019680868B0E8F04F1EF0100F08BFB0EC84
:10042000108A80F30988BFF36F8F7047240000247F
:10043000EFF30580704700000A4880470A4880476C
:100440000A480047FEE7FEE7FEE7FEE7FEE7FEE7B5
:10045000FEE7FEE7FEE7FEE705480649064A074BCA
:100460007047000071390008A19700089902000840
:10047000081D012408230124081F0124081F01244A
:1004800053EA020C00F069802DE9F04B4FF00006B2
:10049000002B1FBFB3FA83F503FA05F424FA05F61F
:1004A0005E4012BF1643B2FA82F502FA05F4C5F1B6
:1004B00020051EBF22FA05FC44EA0C04203556EA4A
:1004C000044C4FEA144418BF641C4FF000084FF06E
:1004D0000009904271EB030C39D3002919BFB1FA1E
:1004E00081F701FA07F6B0FA80F700FA07F6C7F1CC
:1004F00020071EBF20FA07FC46EA0C062037B6FB91
:10050000F4FCA7EB0507103F07F01F0BCBF120060B
:100510000CFA0BFB2CFA06F644BFB3460026202F3C
:10052000A4BF5E464FF0000B5BEA060C08BF4FF01D
:10053000010B19EB0B09ABFB027C48EB0608C01B57
:1005400006FB02CC0BFB03CC71EB0C01C1E70B46A5
:10055000024641464846BDE8F08B13B54FF0000017
:100560004FF00001AFF30080BDE81C407047032A44
:1005700040F2308010F0030C00F0158011F8013BC0
:10058000BCF1020F624498BF11F801CB00F8013BA7
:1005900038BF11F8013BA2F1040298BF00F801CB6B
:1005A00038BF00F8013B11F0030300F02580083A42
:1005B000C0F0088051F8043B083A51F804CBA0E899
:1005C0000810F5E7121D5CBF51F8043B40F8043BEE
:1005D000AFF30080D20724BF11F8013B11F801CB23
:1005E00048BF11F8012B24BF00F8013B00F801CBF4
:1005F00048BF00F8012B704710B5203AC0F00B80BF
:10060000B1E81850203AA0E81850B1E81850A0E816
:100610001850BFF4F5AF5FEA027C24BFB1E8185070
:10062000A0E8185044BF18C918C0BDE810405FEAE0
:10063000827C24BF51F8043B40F8043B08BF70475C
:10064000D20728BF31F8023B48BF11F8012B28BF61
:1006500020F8023B48BF00F8012B704702F0FF036F
:1006600043EA032242EA024200F002B84FF00002DD
:100670000429C0F0128010F0030C00F01B80CCF1B4
:10068000040CBCF1020F18BF00F8012BA8BF20F822
:10069000022BA1EB0C0100F00DB85FEAC17C24BF76
:1006A00000F8012B00F8012B48BF00F8012B704720
:1006B0004FF0000200B5134694469646203922BFFB
:1006C000A0E80C50A0E80C50B1F12001BFF4F7AF46
:1006D000090728BFA0E80C5048BF0CC05DF804EB28
:1006E000890028BF40F8042B08BF704748BF20F896
:1006F000022B11F0804F18BF00F8012B704700004B
:100700004FF0013C50F8042B51F8043B9A4215D1AC
:10071000A2EB0C03934313EACC130BD150F8042B38
:1007200051F8043B9A4209D1A2EB0C03934313EA1C
:10073000CC13E7D04FF00000704700BFD01A01BAC9
:10074000B1FA81F101F0180122FA01F0CB40C1F1B8
:100750002001DBB2C0B2C01A2CFA01F3D11A9143C6
:1007600011EAC311E6D1704770477047704710B562
:1007700000F008F8006810BD10B5044600F002F85B
:10078000046010BD00487047A81C01240048704751
:10079000A81C01247546FFF7F9FFAE46050069461F
:1007A000534620F00700854618B020B5FFF754FEE9
:1007B000BDE820404FF000064FF000074FF0000862
:1007C0004FF0000B21F00701AC46ACE8C009ACE8E3
:1007D000C009ACE8C009ACE8C0098D46704710B547
:1007E0000446AFF300802046BDE81040FFF7BDBDD2
:1007F00001491820ABBEFEE726000200704700004A
:1008000070B504000D460BD055B194F89A0048B16C
:10081000012812D002281DD05FF0000084F89A0051
:10082000002070BD204600F0CDF90028F9D094F8E2
:1008300098000028F4D10120F0E7204600F0B3FB37
:100840000028EDD00AF093FFC4F89400022184F848
:100850009A10E5E70AF08BFFD4F89410D5F8A82099
:10086000401A9042DCD3012070BD00002DE9FF4FFB
:1008700081B014468946019888B3B9F1000F3DD084
:100880006CB3002020700546019850F8250038B35D
:10089000016809B98188A9B3049959B1D0F810B099
:1008A000007DBBF1000F804637D0B8F1000F34D087
:1008B000002730E0D0F808B0007BF2E75BF82700B3
:1008C0004FF0000A564600900DE000BF59F8260090
:1008D000009900F0D7FA20B14FF0010A06E00DE0D0
:1008E0001FE0761CF6B22078B042EFD80098AAF14B
:1008F000010108420DD02078102804D3002005B053
:10090000BDE8F08F09E0009949F820102078401CDC
:1009100020707F1CFFB24745D0D36D1CADB2202D97
:10092000B2D30120EBE7000030B504460C48036861
:100930009BB10279082A01D800210CE0082200218D
:10094000C1EBC10000EB011003EBC0000588A5421C
:1009500004D0491CC9B29142F2D3002030BD00003E
:10096000C406002410B5FFF7DFFF10B190F89C001B
:1009700010BD012010BD10B548B1016839B18968BA
:1009800019B140688847002800D0012010BD002020
:1009900010BD000010B5D0F8841031BB0123002237
:1009A000B0F88C1019B3491C89B2A0F88C1020291A
:1009B00020D800BFB0F88C1000EB810151F8041C66
:1009C000C1B10C68C0F884408C88A0F88E40C0F893
:1009D0008010A0F8903080F89A2080300262426245
:1009E0008262C262A0F1800034B1012010BDA0F883
:1009F0008C30DFE7002010BDC0F88020C0F88420D4
:100A0000A0F88E20A0F89020CAE700002DE9FF5F33
:100A1000DFF8BC9000249B460D46DDF8388009F1D4
:100A2000800A06464FE0002796B107EB47020AEB23
:100A300082018B68AB4213D14B6802998B420FD174
:100A40005AF822005BF8241000F01CFA68BB07E09B
:100A500009EBC7014968A94202D159F83700F1E70B
:100A60007F1CFFB2102FDFD300224846514636B11B
:100A700002EB420301EB83039B68BBB103E000EB95
:100A8000C2035B6853B1521CD2B2102AEFD328467E
:100A900000F05CF8002004B0BDE8F09F00EBC2035A
:100AA0005BF8241049F832105D600AE002EB420066
:100AB0005BF8243001EB80024AF820300298C2E94A
:100AC0000105641CE4B24445ADD30120E3E7000016
:100AD000D81601242DE9FF5FDFF86C8000259246CF
:100AE0008B460E9F08F18009064628E00024BEB11F
:100AF00004EB440209EB8201D1F804C0D44518D1BB
:100B00008968B1B1594514D059F82200039951F8B8
:100B1000251000F0B7F960B1002004B0BDE8F09FE7
:100B200008EBC401496821B1594502D058F8340096
:100B3000ECE7641CE4B2102CD9D36D1CEDB2BD42BD
:100B4000D4D30120E9E70000D8160124F0B500282D
:100B50001BD00E4C0022114604F1800304EBC105AA
:100B60006E68864202D144F831206A6001EB41068A
:100B700003EB8605AF68874203D143F826206A60FD
:100B8000AA60491CC9B21029E8D3F0BDD8160124C7
:100B900010B5FFF7C9FE040008D0201D00F042F98F
:100BA000D4F8B400BDE8104000F001B810BD002832
:100BB00007D00168002904D04969002901D04068A4
:100BC000084770472DE9F8435FEA00090C4628D032
:100BD0003CB3D9F888603EB3D6F800805FEA0800DD
:100BE00022D03046FFF7C7FEF0B10421009194F8FF
:100BF000501014230422204600F0FDF8002507467B
:100C00000DE000BF05EB8501D8F80C3004EB810244
:100C100053B170684946984730B16D1CEDB2BD4282
:100C2000F0D30120BDE8F883484600F0FBF800202F
:100C3000F8E710B504000AD009B1FFF787FF0120DB
:100C400084F89800002184F89C1084F8990010BD65
:100C500010B50C46FFF768FE48B144B1D0F8B42097
:100C60002AB12146BDE81040001D00F003B8002065
:100C700010BD00002DE9F04F16000F46C3B004462A
:100C800001D0356800E00025402121A8FFF710FDC4
:100C9000402131A8FFF70CFD4FF0000A8DF804A1A8
:100CA000D0468DF808A1E4B3DFB3D5B394F898002B
:100CB000012837D13046FFF75EFE002833D05FF0C1
:100CC000000001AA42F820A037F81010EB889942E2
:100CD0002CD08946C5B129685FEA010B14D0AB88D6
:100CE00000210FE001EBC1083BF82880C84507D17F
:100CF00001EBC101042303EB81030BEB030104E0CF
:100D0000491C89B28B42EDD8002142F8201041B134
:100D10001F284FF0010805D0401C80B22028D1D3F5
:100D200007E0FFE7002043B0BDE8F08FB8F1000F07
:100D30005DD0002341AA21A901A8FFF797FDE8B3E0
:100D4000012342AA31A901A8FFF790FDB0B39DF895
:100D50000401002221AB214600901046FFF7BAFEA5
:100D600060B39DF80401002221AB2146009010469B
:100D7000FFF74CFE10B39DF8080131AB3246214617
:100D800000900120FFF7A6FEC0B19DF8080131AB2D
:100D90003246214600900120FFF738FE70B18022D4
:100DA000204601A9FFF728FCC4F888600121A4F8B7
:100DB0008CA0C4F880A0C4F884A000E017E0A4F8D8
:100DC0008EA00846A4F890A084F89AA0C4F894A035
:100DD00084F898A084F8991084F89CA0C4F8A0A086
:100DE000C4F8A4A0C4F8A8A0C4F8ACA09BE720460F
:100DF000FFF7ACFE96E710B50028029C03D019B1AE
:100E0000914201D8084610BD0119002006E000FB00
:100E100003142468002CF6D0401CC0B29042F6D3D4
:100E2000104610BD10B504002BD0FFF78FFE002137
:100E30000A462346501C44F8221082B2202AF8D3D6
:100E4000C3F8A0100120C3F8A410C3F8A810C4F878
:100E5000AC1084F8980084F89900C4F88010A4F8C5
:100E60008C10C4F88410A4F88E10A4F8901084F8A4
:100E70009A10C4F8941084F89C10C4F8881083F871
:100E80009B0010BD10B518B111B1FFF739FC08B1C6
:100E9000002010BD012010BD70B50D4D2868002840
:100EA00015D02E79082E01D800240EE00826002443
:100EB0000420C4EBC40101EB0412296800EBC2005A
:100EC000084400F007F8641CE4B2B442F0D370BDEB
:100ED000C406002470B504003CD094F898000028A3
:100EE00038D1D4F88800FFF746FD50B194F89C0043
:100EF00000282FD1D4F88400002584F8995028B117
:100F000008E02046BDE87040FFF78CBF2046FFF7A1
:100F100041FDE0B3B4F89000C8B3B4F88E10884235
:100F20003BD82B23D4F884106FF0AB02584302EB6C
:100F3000800001442046FFF763FC00280AD0B4F883
:100F40009000B4F88E1084F89A50884203D2401C66
:100F5000A4F8900070BDD4F8800020B1826912B16D
:100F6000C06921469047B4F88C00C4F88050C4F89A
:100F700084502028A4F88E50A4F890500DD254F834
:100F8000200020B194F89B10012019B100E004E08A
:100F900084F89C0084F8990070BD2046BDE870403C
:100FA0000121FFF746BE2DE9F8435FEA00090C4630
:100FB0002DD064B3D9F88860AEB1D6F800805FEA6E
:100FC000080010D03046FFF7D6FC60B10421009134
:100FD00094F8A4101423042204F15400FFF70BFF2B
:100FE0000025074611E04846FFF71CFF12E005EB1D
:100FF0008500D8F8103004EB8002543253B1706889
:101000004946984730B16D1CEDB2BD42EFD3012087
:10101000BDE8F8830020FBE72DE9FF4F1C46924610
:101020008B462DED060B2DED088BF0EE419AF0EE80
:1010300040AAB0EE619A79EEEA8AB0EE60AA8FB06B
:1010400039EE4A8A28EEA80ADDF8A890B0EE62BA16
:10105000F0EE42BA08EE080ADDE92D65DDE92B87DE
:101060000AF0F0F910EE100ACDED06AA1C498DED3C
:1010700007AACDED089ADFED1B0A88428DED099A8B
:1010800002DD88EE801A01E0B0EE601A10EE100A60
:101090008DED0A1A884201DDC8EE000A124A0CA83A
:1010A0005346CDED0B0A116892680E925A460C9188
:1010B00006A98DED0C0ACDE900490D91CDE9046535
:1010C0001D99CDE90287F0EE4B0AB0EE6B0A00F0F5
:1010D0000DF80FB0BDEC088B0AB0BDE8F08F000032
:1010E000BD378635000000003CDC00082DE9FF4FCD
:1010F00017460D4680462DED020B2DED068B87B071
:10110000B0EE608AF0EE409ADDE920B9DFED858A25
:1011100090ED009ADFF810A2002619EE100ACDED2E
:10112000018A344650451FDB022F1DDB1298D8B1CF
:10113000B0EE481AF0EE690AB0EE490A01AA394643
:1011400000F02AF9F0B39DED010A10EE101A514596
:101150005EDD781EDFED751A00EE900A2946B8EEC6
:10116000E01AC0EE010A1DE00121CBF800105FEA91
:10117000090001D0C9ED008AD8F8040090ED000AFA
:101180001C9880ED000AD8F8040090ED010A1D9823
:1011900080ED000A1E98C0ED008A1F98C0ED008AFD
:1011A000AFE00D4402EE105AB8EEC21A21EE211A39
:1011B000B4EEE01AF1EE10FAF3D300EE905AF8EE26
:1011C000E00A00E024E020EEA11AC0EE010AB0EE31
:1011D000600A09F043FFBDEEC00A10EE104A641C1D
:1011E000022C00DA0224BC4200DD3C461298B0EE2C
:1011F000481AF0EE690AB0EE490A01AA214600F049
:10120000CBF828B1DDED010A10EE900A504501DC63
:1012100002267FE0A4F1010A00EE10AA0025F0EEFC
:10122000689AB8EEC00AF7EE00AA80EE80AA66E0DF
:10123000554506D089EE898A18EE100AB0F17E5F16
:1012400001DDB0EE6A8A05A80090D8F8087004ABFA
:10125000B0EE480A03AA404602A9B8471C98554573
:101260009DED020A00EB85011D9881ED000A9DEDC0
:10127000030A00EB850282ED000A04D018EE100A82
:10128000B0F17E5F0EDB1E9800EB85011F9800EB2E
:101290008502C1ED008A681CC2ED008A6C1CCBF887
:1012A00000002EE012984FF0404CDDED040A00EBF8
:1012B00085001E9B90ED000A03EB85071F9B20EE27
:1012C000200A03EB850387ED000A90ED000ADDEDAF
:1012D000050A20EE200A83ED000A0968614507D857
:1012E000134B994204DC1168614501D8994201DD34
:1012F00004260FE090ED000A6D1C40EE0A9AA5420C
:1013000096DBB9F1000FCBF8004003D09DED010A48
:1013100089ED000A07B03046BDEC068B06B0BDE88B
:10132000F08F000000000000BD3786356F12833A51
:101330000000CC4270B520EE020A00EEE23A2DED3C
:10134000068BF0EE618A60EE239AB0EE419A0C466D
:10135000054623EE238AB0EE690A09F0B9FE39EE9C
:10136000888A20EE09AAB0EE480A09F0B1FE08EE1C
:1013700080AAB0EE690A85ED00AA09F099FF20EE77
:10138000099AB0EE480A09F093FF08EE809A84EDBE
:10139000009ABDEC068B70BD70B506460D464D49F2
:1013A00014462DED088BB0EE409A19EE100AF0EEBF
:1013B00041AAF0EE608A884205DD18EE900A884264
:1013C00001DD022D03DA0020BDEC088B70BD1AEEA2
:1013D000900AB2EE04AAB0EE00BA9FED3F8A8842AE
:1013E00014DD29EE0B0A20EE2A0A0AEE0A0A0AF098
:1013F00029F8F0EE400AB0EE680A09F035FFF0EE89
:10140000408A38EECA0AC0EE2A9A01E0F0EE489A05
:1014100078EE8A0AB6EE000A20EE800A60EE290A0B
:10142000F4EEC90AF1EE10FA04DDC9EE009AB0EE4E
:10143000489A03E039EE600A80EE289A681E00EEB2
:10144000900AF8EEE00A39EE290A84ED000AC0EEAF
:1014500020AA002435E000BF00EE104AB8EEC00A12
:1014600020EE2A0AB4EEC90AF1EE10FA02D8B0EE64
:10147000680A21E0DFED190A30EE490A39EEA01AB8
:10148000C0EE010AB7EE000A09F0EEFEF0EE400AE7
:10149000B0EE480A09F0C4FEF0EE080A38EECA1AA7
:1014A00040EE4B0A20EE000A20EE200AF0EE680A19
:1014B00041EE400AB0EE600A06EB8400641C80ED49
:1014C000000AAC42C8DB06EB850000ED018A012072
:1014D0007AE700006F12833A000000005F708930E5
:1014E000264D08B521E000BF9DF80100F0B9BDF818
:1014F000020002281AD19DF8000030B1012808D05E
:10150000022809D0032811D109E0012C0ED10224B0
:101510000CE0012C09D009E0022C07D103E0032CD8
:1015200004D1287808B1042400E00024A86830B170
:10153000002369461A460AF05FF90028D4D034B176
:10154000012C0ED0022C0CD0042C13D109E02878E9
:1015500080B100210222084600F012F850B10124A7
:1015600008E0287830B902220021012000F008F8B4
:1015700000B1032401200AF0D1F8D7E77408002451
:1015800008B503460948406800280CD08DF80030A3
:1015900000238DF801106946ADF802201A460AF0C2
:1015A00097F908B1002008BD012008BD7408002487
:1015B00000280DD0002180F834158187C1879FED68
:1015C000050AA0F84010416480ED080A80ED090A80
:1015D00070470000000000002DE9F04104462DEDA9
:1015E000028B9FED4C8A878F0D467E1EB142B0EE76
:1015F000480A2ED2681C484A81B204EB850004EBED
:10160000810190ED122AD1ED120A90ED3F1AD4ED2E
:10161000052AD1ED3F1A70EEC20A72EEC12A71EEB0
:10162000C11A94ED043A20EEA01A33EE422A01EEDC
:10163000A11A11EE100A90420BDD62EE200A42EE72
:10164000A10A80EE810AB7EE001AF0EE480A00F017
:10165000E9F800EE905A01EE106AF7EE001AF8EE83
:10166000600AB8EE411A30EE800AF0EE480A30EE19
:10167000210A00F0D7F8FCEEC00A10EE900A80B202
:1016800000EE900AB042F8EE600A30EE600A15D320
:1016900004EB870090ED110A84ED060A90ED3E0AF6
:1016A00084ED070A90EDC50A84ED080A90EDF20A70
:1016B00084ED090ABDEC028BBDE8F08104EB8000EB
:1016C00090ED131AD0ED120A31EE601A40EE010AC5
:1016D000C4ED060A90ED401AD0ED3F0A31EE601AD3
:1016E00040EE010AC4ED070A90EDC71AD0EDC60A14
:1016F00031EE601A40EE010AC4ED080A90EDF41ACA
:10170000D0EDF30A31EE601A40EE010AC4ED090A89
:10171000D0E7000000000000BD3786352DE9F0411C
:1017200006002DED028B4FD0B5EEC00AF1EE10FA97
:101730004AD00025DFED260A20EE208A41E000BFD6
:1017400006EB850494ED120A00F0FAFCF0EE400A74
:1017500094ED3F0AF0EE608A00F0FAFC08EE280AE9
:101760001C4910EE100A884204D810EE100A1A49DB
:10177000884201DD012700E000279FED181ADFED08
:10178000180A00F04FF800F059F984ED3F0A27B12C
:101790009FED140A84EDF30A11E094EDC61A94ED5E
:1017A000F30ADFED110ADFED111A20EE200A21EE17
:1017B000211A08EE010A80EE201A84EDF31A6D1C3E
:1017C000ADB2B08FA842BBD8BDEC028BBDE8F081B2
:1017D000ABAA2A3F000011C30000114300001143CF
:1017E000000011C3000000009A9939C06666663F88
:1017F000818F00229FED0A0A491E89B200EB810108
:10180000D1ED120AC0ED060AD1ED3F0AC0ED070A7C
:1018100080ED080A80ED090A80F834257047000041
:1018200000000000B4EEE00AF1EE10FA02D2B0EED1
:10183000600A7047B4EEC10AF1EE10FAF9DDB0EEBD
:10184000410A704770B5D0ED070A90ED060A0D46C3
:1018500004460831284600F0FFF894ED080ADFED51
:10186000170A94F8340520EE200AB0EEC00A10B32F
:10187000B7EE001ADFED120AFFF7D4FF85ED010A7B
:10188000D4ED070A9FED0F1A9FED0F0A00EEC10A73
:1018900000F0CCF931EE400A71EEE00A9FED0B1A30
:1018A000C0EE801AD4ED090A21EE810A20EE200A4A
:1018B00085ED030A70BDB7EE000ADFE7BF2B023DDE
:1018C000B1FB8E3C9A993940000011439A9939C076
:1018D00000280B4607D0D0ED0B0A90ED0A0A1146FE
:1018E000184600F0B9B8704730B50022848F9FEDDC
:1018F0002C0A13461CE000BF00EB8305D0ED041A50
:10190000D5ED120A90ED052A95ED3F1A70EEE10A29
:1019100031EE421A60EEA00A41EE010AF4EEC00A6E
:10192000F1EE10FA02D2B0EE600A1A465B1C9BB2CE
:101930009C42E1D8A3B2B0F840405B1E9BB29442F7
:1019400000D92246944217D1456C4FF47A74491B52
:10195000A14214D39A4212D2B1FBF4F19C1AA142D3
:1019600000D921460A4401EB4104C4EBC11192B2F3
:1019700005EBC101416402E04164A0F8402000EEA3
:10198000102AF7EE000AB8EE400A30EE200ABCEE4C
:10199000C00A10EE100A984200D9184680B230BD35
:1019A000CAF24971002842D000F12C039FED200AB1
:1019B000DFED200A80ED000A80ED010A80ED020AC9
:1019C00080ED030A80ED040A80ED050A80ED060A29
:1019D00080ED070A80ED080A80ED090A9FED161ACE
:1019E00080ED0A0A00210A4683EC030A80ED0E0A04
:1019F0008187C187A0F84010416480F8341580F8D1
:101A0000351500EB8201531C81ED120A81ED3F0A6E
:101A100081ED6C0A9AB281ED990A81EDC60A01F551
:101A2000806381EDF30A2D2A83ED200AE9D3704704
:101A300000000000000020420000C8429FED041A90
:101A4000DFED040A31EE401A81EE200A70470000F3
:101A5000000011439A99394010B50C462DED028BC8
:101A600038B1DFED141A9FED141A00EE211A80ED43
:101A7000001A002C1BD09FED110A9FED118A00EE79
:101A8000C08AB0EE480A00F0D1F8F0EE602AB0EE5D
:101A9000413AB0EE612AF0EE400AB0EE621AF0EE82
:101AA000431AB0EE480A00F00DF884ED000ABDECD0
:101AB000028B10BDBF2B023D14AE87BF9A993940EF
:101AC0000000114310B52DED068BB0EE609AB0EE1C
:101AD00040AA71EEC98AF0EE429AB0EE418AB0EEA9
:101AE000680A09F0C0FD10EE100A0949884204DCBA
:101AF000B0EE480ABDEC068B10BD3AEE490A79EE0D
:101B0000C80A20EE200AC0EE280A30EE880AF1E763
:101B1000BD37863510B50C462DED028B48B1DFED93
:101B2000131A9FED131A30EE610AC0EE011AC0EDD0
:101B3000001A002C17D0B0EE608AB0EE480A00F010
:101B40001DF8B0EE412AB0EE401AB0EE480AFFF799
:101B5000B9FF9FED081ADFED080A31EE401A81EE59
:101B6000200A84ED000ABDEC028B10BD14AE87BFC5
:101B7000BF2B023D000011439A99394010B52DED5D
:101B8000068BF0EE408A9FED240A00F04FF8B0EE8D
:101B9000619AF0EE40AAB0EE60AAF0EE419AB7EE7C
:101BA000008A00F0BDF820B39FED1C0A38EEC00A91
:101BB00020EE080AB5EEC00AF1EE10FA19D99FED31
:101BC000180A00F033F8B0EE619AF0EE40AAB0EED9
:101BD00060AAF0EE419A00F075F850B19FED110A3D
:101BE00038EEC00A20EE080AB5EEC00AF1EE10FA8F
:101BF0000AD8B0EE6A0AF0EE4A0AB0EE691AF0EEC0
:101C0000491ABDEC068B10BDBDEC068BBDE810403B
:101C10009FED050A00F00AB80000114348DCB33F0D
:101C200000000000234A6B400000B4C210B51C49FC
:101C30002DED048BF0EE408A18EE900ADFED199A34
:101C40009FED198A884219DA00F06AF8B0B1F5EE12
:101C5000C08AF1EE10FA9FED159ADFED158A16DABB
:101C600000F030F898B19FED131ADFED131AB0EEC3
:101C7000490AF0EE680ABDEC048B10BD9FED0F0A17
:101C8000DFED0F0AB0EE691AF0EE481AF3E7B0EE96
:101C9000690AF0EE480AB0EE491AF0EE681AEAE76F
:101CA0000000B4420000B44248DCB33F0000000032
:101CB000234A6B400000B4C22B87C240000011438E
:101CC00096430B3D10B52DED028B9FED118A00F070
:101CD00027F8D8B19FED0F0A09F0C5FC10EE100AE5
:101CE0000D4CA04212DDB0EE480A09F0BCFC10EE2B
:101CF000100AA0420ADD9FED090AB5EEC00AF1EE16
:101D000010FA03DD0120BDEC028B10BD0020FAE7C4
:101D100033C419402B87C240BD378635C69EAE40BE
:101D200010B59FED120A2DED028B9FED0F8A09F081
:101D30009AFC10EE100A0E4CA04212DDB0EE480ADA
:101D400009F091FC10EE100AA0420ADD9FED090A8D
:101D5000B5EEC00AF1EE10FA03DD0120BDEC028BF6
:101D600010BD0020FAE70000FF5B1140234A6B40E2
:101D7000BD378635994F474070B504000E462DEDAE
:101D80000A8BF0EE619AB0EE41AAB0EE608AF0EEF6
:101D9000408A84B018D018EE900A09F02AF998B158
:101DA00018EE100A09F025F970B11AEE100A09F0C0
:101DB00020F948B119EE900A09F01BF920B194F806
:101DC000340530B106202CE0002004B0BDEC0A8BB5
:101DD00070BDDFED46BAB0EE6B1ADFED450AB0EE2E
:101DE000480AFFF71FFDF0EE40AA9FED42CA88EEB9
:101DF0008C9AFFF723FE19EE100A4FF04042B0EE26
:101E0000408A90420CD819EE101A3B48814207DCF8
:101E100018EE101A914203D818EE101A814203DD11
:101E2000012084F83505CFE7F0EE690AB0EE4A0AE2
:101E300003A902A8FFF76EFE9DED020A00F080F9EB
:101E4000F0EE400A9DED030AB0EE60BA00F080F9B2
:101E5000F0EE4B0A7AEEC0AA78EEE08AB0EE680A9D
:101E600009F001FC10EE100A244D9FED25BAA8429E
:101E700007DDB0EE6A0A09F0F6FB10EE100AA84280
:101E800002DCF0EE4B8A0BE028EEAA0AF7EE000A1D
:101E9000BFEE001AB4EEC0BAF1EE10FA70FE818AFD
:101EA000DFED183AB0EE6B3ADFED172AB0EE4C2AB0
:101EB000DFED161A9FED161AF0EE480AB0EE490A49
:101EC00001A96846FFF736FA9DEC021AB0EE683AAF
:101ED000F0EE692AB0EE4A2AF0EE480AB0EE490A5E
:101EE0003146204600F016F86FE70000000011436D
:101EF000000011C36666663F0000CC4217B7D138B8
:101F00000000000035FA8E3C9A9939400080B643B3
:101F10000000B4432DE9F041040088464FF000056D
:101F20002DED088B86B0B0EE439AF0EE62AAB0EECB
:101F300042BAF0EE619AB0EE41AAB0EE608AF0EEDD
:101F4000408A059553D018EE900A09F052F80028FF
:101F50004DD018EE100A09F04CF800287AD01AEE8D
:101F6000100A09F046F8002874D019EE900A09F01A
:101F700040F8E0B31BEE100A09F03BF8B8B31AEED4
:101F8000900A09F036F890B394F8340518B1062099
:101F900084F835055EE0F0EE6A0AB0EE4B0A2046A2
:101FA00000F046F9D4ED050AB5EEC09AF1EE10FA4C
:101FB000DFED5BAA19D094ED040A00F0C1F8B0EE91
:101FC00040BA94ED050A00F0C3F8DFED560AB0EE12
:101FD0006A1A69EE200A00EECB0ADFED530AFFF71A
:101FE00021FCFFF72BFDF0EE400A012100E031E07B
:101FF00084ED00AAC4ED019AB0EE681A84ED0A1AC5
:1020000084ED0B8A84F8355504F1380084F83415D2
:1020100005AEA58704F57373E58704F54672CDE92F
:10202000036004F1FC018DE80E002D210220F0EE8A
:10203000481AD4ED0D2A94ED0C2A94ED040A04F10B
:10204000480304F59062FEF7E7FF48B184F83505D0
:1020500084F83455002006B0BDEC088BBDE8F08153
:102060000598002801DD2D2801DD0520EEE7B0EE02
:10207000490AA0872046FFF751FB0598211D9FEDD7
:102080002B8ADFED2B8A04EB80009FED2A9A90EDDE
:10209000110ADFED299A84ED0A0A9FED28AAD0EDF6
:1020A0003E0AF0EE483AC4ED0B0AB0EE6A3AF0EEA2
:1020B000682AB0EE492AF0EE691AB0EE4A1A2046B4
:1020C000FFF738F9A78F2D2F02D92D27002601E021
:1020D000002619E004EB860000F51971D0ED3F0AE7
:1020E00090ED120AF0EE483AB0EE6A3AF0EE682A45
:1020F000B0EE492AF0EE691AB0EE4A1A00F5D8702F
:10210000FFF718F9761CB6B2BE42E3D3C4F8448098
:10211000022184F834150120E587A4F840509AE79D
:1021200000001143ABAA2A3F000011C335FA8E3CD0
:102130009A9939406666663F0080B6430000B44312
:10214000DFED020A20EE200A704700006666663F57
:10215000F0EE400A9FED031A9FED030A00EEC10A5C
:10216000704700009A993940000011432DE9F04171
:10217000040017460D462DED028BB0EE608AF0EE9E
:10218000408A18D0BFB118EE900A08F032FF90B123
:1021900018EE100A08F02DFF68B1A08F58B1F0EECC
:1021A000480AB0EE680A204600F042F894F8340578
:1021B000022805D035E00020BDEC028BBDE8F0819F
:1021C000A08F01282AD0401E294686B22046FFF75C
:1021D0008BFB054601462046FFF7FEF9681CE587A4
:1021E000B0421BD204EB8605D4ED040A95ED120A29
:1021F00030EE600A09F037FA10EE100A4FF07E5602
:10220000B0420EDC95ED3F0AD4ED050A30EE600ACF
:1022100009F029FA10EE100AB04202DC2046FFF75E
:10222000E7FA39462046FFF70DFB0120C4E700001E
:1022300000F1140110B504461030FFF76BFC04F1F7
:102240000C01D4ED050A94ED040ABDE81040081F06
:10225000DFED063A9FED063ADFED062A9FED062AEE
:10226000DFED061A9FED061AFFF764B835FA8E3CCB
:10227000000011439A9939406666663F0080B64374
:102280000000B44310B5040013D0002084F85105B9
:1022900004F11800FFF78CF9206810B1204600F017
:1022A000C5FAA068002804D02046BDE8104000F020
:1022B000FBBA10BD0168491C41F001010160BFF388
:1022C0005F8F08467047000070B5040015462DED7D
:1022D000048B11D0002DFCD068680028F9D067A1CC
:1022E000FEF7D0FD04F11806A8B1287A002803D122
:1022F000287810B1012807D0BDE03046FFF758F923
:10230000204600F093FAB2E03046FFF751F920463C
:1023100000F0CAFAABE068685AA1FEF7B3FD90B3CB
:102320002878022858D1287A032855D1E86808F07F
:1023300059FE002850D0286908F054FE00284BD0E0
:102340003046FFF735F9012184F8511595ED030A60
:1023500004F5806080ED550A95ED040A80ED560A7B
:10236000616891F8392012B191ED070A01E09FED03
:10237000480A80ED570AE16891F84420920703D596
:1023800091ED0A0A02E00DE09FED420A80ED580A45
:1023900009F0EDF901461438C4F86405204600F050
:1023A00091FA64E068683CA1FEF76CFDA0B1287A60
:1023B000032860D1D5ED038A95ED048A18EE900AC2
:1023C00008F010FE40B118EE100A08F00BFE18B12C
:1023D000287810B1012820D04DE09FED329A0320DB
:1023E000F0EE480AB0EE491AB0EE680AB0EE412AA3
:1023F000F0EE411A00F06AF8002839D0B0EE491A20
:1024000003212046B0EE412AF0EE411AF0EE480AD0
:10241000B0EE680A00F0E2F929E0E06800F14C054E
:10242000407901F03BF830B395ED000AB4EEE80ACC
:10243000F1EE10FA1FDC95ED010AB4EEE80AF1EEB8
:1024400010FA18D395ED020AB4EEC80AF1EE10FAAC
:1024500011DC95ED030AB4EEC80AF1EE10FA0AD3C6
:10246000F0EE480AB0EE680A204600F0EDF90120CF
:10247000BDEC048B70BD0020FAE7000073746F7030
:102480000000000074705F6A6F696E7400000000E5
:1024900014AE87BF96430B3D706F736974696F6E9E
:1024A0000000000000000000416891F838205AB197
:1024B00091F8391041B1C06890F84400C10703D0C9
:1024C000800701D5012070470020704710B50446F1
:1024D0002DED068BB0EE409AF0EE429AB0EE61AA76
:1024E000F0EE418AB0EE608A19EE100A08F07AFD2B
:1024F000F0B318EE100A08F075FDC8B318EE900A94
:1025000008F070FDA0B31AEE100A08F06BFD78B366
:1025100019EE900A08F066FD50B3032C02D0042C8B
:1025200012D049E0B0EE490A09F09AF810EE100A0C
:102530002249884240DC18EE100A214988423BDBE0
:10254000204918EE100A31E019EE100A1E4988429F
:1025500032D819EE100A1D4988422DDC18EE100AF7
:102560001B49884228D818EE100A1A49884200E010
:1025700022E021DC18EE900A10F1795F1CD818EEE9
:10258000900A1549884217DCB5EEC0AAF1EE10FAA0
:1025900012DB1AEE100A114988420DDCF5EEC09AE2
:1025A000F1EE10FA08DB19EE900A0D49884203DCBF
:1025B0000120BDEC068B10BD0020FAE7009EB64856
:1025C000B1FB8E3C9AF98E44000048C1000048419E
:1025D000000034C2000034420000C0410000FA4351
:1025E0000000A04010B504001ED094F8500530B98A
:1025F00004F11800FFF7D6F9012084F8500520688F
:1026000090B1616881B1A06870B1E06860B109788B
:1026100051B1202908D801880F2905D84088B0F584
:10262000006F01D2012010BD002010BDF0B50400E4
:10263000154687B00CD0002D0AD06868002807D056
:102640005EA1FEF71FFC60B1287810B1012803D00D
:102650007BE02068807901E0A068807A002871D052
:1026600073E0686857A1FEF70DFC00286FD009F0F1
:102670007EF806462878022867D1287A032864D194
:1026800094F8510504F11805C0B12046FFF70CFF7E
:1026900068B3E16804F580606268D0ED560AD1ED58
:1026A0000A1A90ED550A92ED071A31462846FFF7AF
:1026B00063FB4FF00007F8B184F851752046FFF72F
:1026C000F3FEE0B3E0686A466168D0ED0A0A91ED76
:1026D000070A31462846FFF749FD80B36946204680
:1026E00000F03CF958B394F84C0540BB0AE0314681
:1026F000204600F0E7F828E02846FEF759FF84F866
:10270000517522E005AA284604A9FFF7E1F86068A0
:10271000DDED040A90ED070A30EE600A08F0A0FF34
:10272000D4ED040AB4EEE00AF1EE10FA0DD8E06838
:10273000DDED050A90ED0A0A30EE600A21E004E0C2
:1027400000E004E0012007B0F0BD0020FBE768686E
:102750001FA1FEF797FB0028F7D0287A0328F4D1B1
:10276000287895ED030AB8B10128EED1E16891F817
:102770004400C207E9D08007E7D5D1ED0A0A30EE60
:10278000C00A08F06DFFD4ED050A00BFB4EEE00A00
:10279000F1EE10FAD9D8D5E7606890F83810002922
:1027A000D3D090F839100029CFD0D0ED070A30EE01
:1027B000C00A08F055FFD4ED040AE7E773746F70A0
:1027C0000000000074705F6A6F696E7400000000A2
:1027D000706F736974696F6E0000000070B50D460C
:1027E0002DED068BB0EE428AF0EE618AB0EE419A92
:1027F0000468F0EE609AB0EE40AA2046FFF75AFD5A
:102800000022A2710121257184ED02AAC4ED039A70
:1028100084ED049AC4ED058A84ED068AA171BFF3A4
:102820005F8F401C2060BDEC068B70BD10B5046846
:102830002046FFF73FFD0021A1712171BFF35F8F9B
:10284000401C206010BD000070B505462DED028BC8
:10285000B0EE608A8468F0EE408A2046FFF72AFDD9
:102860000022A2729FED0E0A9FED0E1A0121F3EED7
:102870000E0AEA68527922716171C4ED038A84ED0F
:10288000048A84ED050AC4ED060A84ED071AA172D4
:10289000BFF35F8F401C2060BDEC028B70BD000059
:1028A000000000009A99993E10B584682046FFF711
:1028B00001FD0021A1726171BFF35F8F401C206098
:1028C00010BD000070B505462DED028BD0F86405F3
:1028D000081A14283BD305F58066C5F864159FEDEA
:1028E0001D8A0321284696ED570AB0EE482AF0EEDD
:1028F000481AB0EE481AF7EE000AFFF76FFFAC680F
:102900002046FFF7D7FC0022A2729FED131A012187
:10291000F3EE0E0AEA68527922716171EA68128850
:10292000E280EA685288228196ED580A84ED030A13
:1029300084ED048A84ED058AC4ED060A84ED071A45
:1029400084ED088AA172BFF35F8F401C2060BDEC4C
:10295000028B70BD000000009A99993E70B5060088
:102960000C462DED028B35D0A4B39FED278AF56878
:102970000320B0EE481A94EC020A4C35B0EE412A1E
:10298000F0EE411AFFF7A2FD20B3F068407900F0A5
:1029900085FDF8B194ED020AD5ED000AB4EEE00A27
:1029A000F1EE10FA16D3D5ED010AB4EEE00AF1EE1D
:1029B00010FA0FDC94ED030AD5ED020AB4EEE00A3A
:1029C000F1EE10FA06D3D5ED030AB4EEE00AF1EE0B
:1029D00010FA03DD0020BDEC028B70BDB0EE481A8A
:1029E00094EC020A03213046B0EE412AF0EE411A7F
:1029F000FFF7F4FED4ED030A94ED020A3046FFF728
:102A000023FF0120E7E7000000000000FEE710B50B
:102A1000040005D0206818B100F010F8A04201D0E1
:102A2000012010BD2068D0F88C00222804D0204658
:102A3000BDE8104000F078B8002010BD074A002122
:102A400052F821302BB11B68834202D152F8210089
:102A50007047491C0829F3D300207047881C0124C3
:102A60002DE9F04104004FF0080519D0C1B1BAB109
:102A70001F4E002056F82070A74201D1054603E002
:102A800017B13F688F420BD0401C0828F2D3082DA5
:102A90000BD1002556F8250028B16D1C082DF9D35F
:102AA0000120BDE8F081082DFAD084E80E008021D5
:102AB00004F10C00FDF7FCFD00200121A4F88C10AE
:102AC00084F88E0084F88F00C4F89000C4F8940055
:102AD000C4F89800C4F89C00C4F8A000C4F8A4008E
:102AE000C4F8A800C4F8AC0046F82540D9E70000B7
:102AF000881C012470B504000D4608D0206830B150
:102B0000FFF79CFFA04202D10DB1802D01D9012019
:102B100070BD2068D0F88C00222803D00020A4F8D3
:102B20008C5070BD022070BD10B504000AD0206822
:102B300040B1FFF783FFA04204D1B4F88C200AB162
:102B4000802A01D9012010BD206804F10C0104F095
:102B500052FA0028F7D0D4F89C10491CC4F89C10F5
:102B600010BD70B5040005D0206818B1FFF766FFEE
:102B7000A04201D0012070BD2468204604F0DEFA96
:102B800026680825042302220121356225682B626C
:102B900023681A622268116270BD00002DE9F04FAF
:102BA000804E804FDFF8FC911836DFF8F8A14837E7
:102BB0000468856D0AF1300ADFF8ECB14C45DFF8A6
:102BC000ECC1DFF8ECE16DD0B4426BD0544569D074
:102BD000BC4267D0DFF8D081A8F11808444561D025
:102BE0005C455FD064455DD074455BD0DFF8C4813F
:102BF000444557D0DFF8BC8108F11808444551D04E
:102C0000DFF8B08108F1300844454BD0DFF8A481EB
:102C100008F14808444545D0DFF8988108F160087C
:102C200044453FD0DFF88C8108F17808444539D01D
:102C3000DFF8808108F19008444533D0DFF87481D3
:102C400008F1A80844452DD0DFF86C81444529D00F
:102C5000DFF8648108F11408444523D0DFF8588177
:102C600008F1280844451DD0DFF84C8108F13C08E4
:102C7000444517D0DFF8408108F15008444511D091
:102C8000DFF8348108F1640844450BD0DFF828816F
:102C900008F17808444505D0DFF81C8108F18C085C
:102CA000444509D1D0E91948C4F80480C46E1CB168
:102CB000D0E91C48C4F8048004684C452ED0B442C6
:102CC0002CD054452AD0BC4228D0374E183EB442AE
:102CD00024D05C4522D0644520D074451ED0354EAA
:102CE000B4421BD0334E1836B44217D0314E303672
:102CF000B44213D02F4E4836B4420FD02D4E60361A
:102D0000B4420BD02B4E7836B44207D0294E9036C1
:102D1000B44203D0274EA836B44215D190F85C6077
:102D20003F2406F01F06B440AC600468256825F413
:102D3000802525602EE09A600068C160BDE8F08FB4
:102D400099600068C260F9E71B4EB4421BD01A4E6E
:102D50001436B44217D0184E2836B44213D0164E4B
:102D60003C36B4420FD0144E5036B4420BD0124E03
:102D70006436B44207D0104E7836B44203D00E4EBB
:102D80008C36B442DAD190F85C60012406F01F065C
:102D9000B4406C60046863608368402B0368CFD1E3
:102DA000C9E700001000024088000240A000024075
:102DB000B800024010040240085402582DE9F041C6
:102DC000AD4E04004FF000077ED0207900F066FB86
:102DD0000028F9D0E1880F2976D82089B0F5006F56
:102DE00072D2227973799A4205D13288914202D106
:102DF000718888420DD0002000F0CCF93773A07A9A
:102E0000002875D12289E188207900F039F900285D
:102E10006ED1994D61794C35062955D8964800F008
:102E20002EFB002850D0A07A00284DD060790028D1
:102E30004AD0072848D2DFE800F0FA04608292AD59
:102E4000C200E06808F0DCF800283DD0206908F0F6
:102E5000D7F8002838D0606908F0D2F8002833D0BD
:102E6000A06908F0CDF800282ED0E06908F0C8F875
:102E7000002829D094ED030AD5ED000AB4EEE00A4B
:102E8000F1EE10FA20DBD5ED010AB4EEE00AF1EE26
:102E900010FA19D894ED040AD5ED020AB4EEE00A4E
:102EA000F1EE10FA10DBD5ED030AB4EEE00AF1EE14
:102EB00010FA09D894ED050AD5ED040AB4EEE00A3B
:102EC000F1EE10FA00DB00E05AE0D5ED050AB4EEB1
:102ED000E00AF1EE10FA53D894ED060AD5ED060A91
:102EE000B4EEE00AF1EE10FA4ADBD5ED070A17E07E
:102EF000A1E000BFD5ED090A5BE0E06808F080F8CA
:102F0000F0B3E06908F07CF8D0B394ED030AD5ED96
:102F1000000AB4EEE00AF1EE10FA31DBD5ED010A59
:102F2000B4EEE00AF1EE10FA2AD894ED070AD5EDD6
:102F3000080AB4EEE00AF1EE10FADBDA77E0E068B6
:102F400008F05EF8E0B194ED030AD5ED000AB4EEA6
:102F5000E00AF1EE10FA6ADBD5ED010A29E0E0683B
:102F600008F04EF860B1206908F04AF840B194EDDD
:102F7000030AD5ED000AB4EEE00AF1EE10FA00E023
:102F800007E054DBD5ED010AB4EEE00AF1EE10FAE9
:102F900004D94CE0206908F033F8E8B394ED040A52
:102FA000D5ED020AB4EEE00AF1EE10FA3FDBD5ED02
:102FB000030AB4EEE00AF1EE10FA3ED937E0E06819
:102FC00008F01EF840B3206908F01AF820B3206A10
:102FD00008F016F800B394ED030AD5ED000AB4EE3C
:102FE000E00AF1EE10FA22DBD5ED010AB4EEE00AB8
:102FF000F1EE10FA1BD894ED040AB5EEC00AF1EE1A
:1030000010FA14DBD5ED030AB4EEE00AF1EE10FA83
:103010000DD894ED080A00E009E0B5EEC00AF1EE23
:1030200010FA04DB10EE100A1449884205DD002076
:1030300000F0B0F83773BDE8F08194ED030A86ED37
:10304000040A94ED040A86ED050A94ED050A86ED5E
:10305000060A94ED060A86ED070A94ED070A86ED46
:10306000080A94ED080A86ED090A60793073012098
:10307000BDE8F04100F08EB8FC06002446B6D14011
:1030800070B514460D46064600F008FA20B10F2D23
:1030900002D8B4F5006F01D3012070BD002000F00C
:1030A00079F8074801222B46314600F0C5F904485B
:1030B000002144800173001F4180084670BD00005C
:1030C000FC0600242DE9F041114E0025341F7779CC
:1030D00065703846658000F0E1F998B10123394602
:1030E000201D1A4600F0A8F9212070800949221DF0
:1030F0000120357300F0D6FD30B1032804D009203B
:10310000207002E00120FBE725702078BDE8F08107
:10311000FC0600246536000870B51C4800F0FEFD72
:103120001B4C08B1207070BD002626701848001D89
:1031300000F0A4F860780028F5D015486425001D3B
:1031400090F84410C90708D090F83C0001281AD024
:10315000608890B1401E608070BD608838B1401EAC
:1031600060800B48BDE87040001D00F0DFBA0848E1
:10317000001D00F033F96580F3E70548001D00F0FD
:103180002DF9658070BD6680EBE70000CC06002459
:10319000F806002470B500B101200B4C617888421C
:1031A0000AD0002560700028658004F1040004D076
:1031B00000F014F96420608070BD00F003F902484B
:1031C000001D057370BD0000F806002400B500283E
:1031D00089B034D01E490A68D3072FD1BFF35F8F5F
:1031E0000B798DF804304B798DF80530CB88ADF82C
:1031F00006300B89ADF808308B7A8DF80A3091EDE6
:10320000030A8DED030A91ED040A8DED040A91ED98
:10321000050A8DED050A91ED060A8DED060A91ED80
:10322000070A8DED070A91ED080A8DED080ABFF334
:103230005F8F09688A4201D1CA0702D0002009B015
:1032400000BD242200916946FDF7D6F90120F6E77A
:10325000F007002400280DD09FED070A80ED060A34
:1032600080ED050A80ED040A80ED070A80ED080A6A
:1032700080ED090A704700000000000010B504004E
:103280002DED028B4ED0217B00F0F9F8002849D0BB
:10329000D4F8F00058B1A16C884247D094F844307B
:1032A0000022A06443F00101A4F8462003E094F852
:1032B000440020F0010184F84410217B9FED408AF6
:1032C00099B3012962D0022904F1B0003DD003294D
:1032D00028D1D4ED0A0A94ED040A05F0A5FA84ED8C
:1032E000050AD4ED0B0A04F1740005F09DFAD4ED43
:1032F000170A84ED060AB4EEE00AF1EE10FA06D9D8
:10330000D4ED180AB4EEE00AF1EE10FA01DBB0EEEB
:10331000600A94F8440084ED060A40F0040000BFFF
:1033200084F84400BDEC028B10BD40E0B4F84600C8
:103330004FF6FF71884202D2401CA4F84600B4F850
:103340004600B0F57A7FB2D2B7E7D4ED0A0A94ED21
:10335000040A05F069FAD4ED150A84ED050AB4EE05
:10336000E00AF1EE10FA06D9D4ED160AB4EEE00A3E
:10337000F1EE10FA01DBB0EE600A94F8440084ED3F
:10338000050A84ED068A40F00400C9E794F8440079
:103390004107C7D594ED0A0A20F0040084F84400E0
:1033A00084ED040A84ED058A84ED068ABAE794ED7B
:1033B0000A0A84ED058A84ED068A84ED040AB1E7E1
:1033C0000000000010B5040007D0FD2100F06AF9EC
:1033D0002046BDE81040FFF73DBF10BD002802D0D9
:1033E000FC2100F05FB9704728B1042805D00528FA
:1033F00006D0062807D0002070474FF48070704731
:103400004FF4007070474FF440707047094A002134
:1034100001EB410302EB43131B78834204D101EB20
:10342000410002EB40107047491C0329F0D30020F3
:103430007047000000D600082DE9F04104009846CE
:1034400017460E4619D00846FFF7E0FFF42105465F
:103450002046FDF72DF927710020A4F80080002DEB
:10346000608066712073A56007D02822291D04F1B1
:103470004C00BDE8F041FDF7BFB8BDE8F08118B1E0
:10348000806808B1062901D9002070470122B0F8F0
:103490005C008A401040F8D00120704700B5FFF76B
:1034A000B5FF002800D0012000BD000070B52DED53
:1034B000028BD0ED041AD0ED133A90ED143AF4EEED
:1034C000E31AF1EE10FA02D8F0EE631A06E0F4EE19
:1034D000C31AF1EE10FA01DBF0EE431A90ED051A73
:1034E000D0ED154AD0ED162AB0EE617AB4EEE41AAA
:1034F000F1EE10FA02D8B0EE641A06E0B4EEE21A69
:10350000F1EE10FA01DBB0EE621AD0ED060AD0ED52
:10351000175A90ED185AB0EE418AF4EEE50AF1EE32
:1035200010FA02D8F0EE650A06E0F4EEC50AF1EEF4
:1035300010FA01DBF0EE450A90ED072AD0ED196A8A
:1035400090ED1A6AF0EE607AB4EEE62AF1EE10FA27
:1035500002D8B0EE662A06E0B4EEC62AF1EE10FA02
:1035600001DBB0EE462A90ED080AD0ED1B1A90ED73
:103570001C1AB4EEE10AF1EE10FA02D8B0EE610ABC
:1035800006E0B4EEC10AF1EE10FA01DBB0EE410A3A
:10359000007BDFED310A022802D0032807D102E0C8
:1035A000B0EE602A03E0B0EE600AB0EE402A77EE9B
:1035B000638A38EE647A9FED2A4ADFED280A32EEFC
:1035C000662A30EE618A77EEE57A27EE040A68EE25
:1035D000A00A33EE637A22EE042A67EE843A28EEDC
:1035E000043A80EE874A72EEE42A71EE610A76EEC2
:1035F000664A35EE655A80EE221ABDEEC40A10EE18
:10360000104A260A0E704C70C2EE241ABDEEC10A92
:1036100010EE103A1C098C701B0183EE202AFDEE7F
:10362000E10A10EE900A087143EA1020C3EE852AE1
:10363000BDEEC21A11EE102A14094C711201FDEEF2
:10364000E21A11EE905ACD71C870082042EA152294
:103650008A71BDEC028B70BD0000000000FF7F4747
:1036600000F07F4500B5B8B1B1B102780B799A424C
:1036700012D1427882B9827872B9C278082A0BD303
:10368000028A4B88C2F30A029A4205D1027A0B8859
:1036900002F00F029A4201D0002000BD05F004F9AB
:1036A000012000BD1CB50AA20446D2E90002CDE902
:1036B00000028DF80710207BFFF796FE2188082373
:1036C0006A46084481B2204600F006F81CBD00009E
:1036D000FFFFFFFFFFFFFF0070B5082B16468AB003
:1036E000054600D90823B1F5006F02D34FF08040A2
:1036F00000E0002000240294CDE90010184600F0FC
:1037000099FACDE903040594324606946946079474
:103710000894287900F06EFB002804D1D5F8EC005D
:10372000401CC5F8EC000AB070BD000030B50400C4
:103730004FF000002DED068B85B00190029071D006
:10374000217B2046FFF79BFE00286BD0207B0825BD
:10375000072855D2DFE800F03054545404090D0016
:10376000206901906069029051E060690425019030
:103770004DE094ED050A9FED2D1ADFED2D0A20EEA8
:10378000010ABCEEC00A10EE100AADF80C0094ED70
:10379000090A20EE200ABCEEC00A10EE100AADF8AD
:1037A000000020690190BDF80C00ADF80800BDF8DC
:1037B0000000ADF80A002AE09FED1E0A94ED069A7B
:1037C00084ED060AD4ED058A84ED050A94ED048A99
:1037D00084ED040AD4ED079A84ED070A94ED08AA53
:1037E00084ED080AD4ED09AA84ED090A01A920464E
:1037F000FFF75CFE054604F1100080EC068A04E049
:1038000001A92046FFF752FE0546002D0AD0207B75
:10381000FFF7EAFD218801AA2B46084481B2204621
:10382000FFF75AFF05B0BDEC068B30BD0000C84263
:1038300000401C460000000070B500287DD0002923
:103840007BD0082A79D30A78120980F83C20CD78F9
:103850000B79B1F801202E014C7903F00F05D0ED62
:10386000140A52BA46EA131344EA05249FED3C2A8F
:1038700090ED131A00EE102AF6EE001A70EEC10A4F
:10388000B8EEC00AD0F8F02060EEA11A20EE800A4F
:10389000C0EE022A32EE811A5AB190ED100A31EED2
:1038A000400AB4EEE10AF1EE10FA05DD30EE600AEE
:1038B0000BE080ED0A1A0EE0F1EE611AB4EEE10AB7
:1038C000F1EE10FA01D230EE200AD0ED0A0A30EE05
:1038D000800A80ED0A0A80ED101A01EE103A00EE1F
:1038E000904AD0ED161AB8EEC12AB8EEE01AD0ED23
:1038F000150A9FED1C0A002471EEE01A21EE822ABF
:10390000C2EE001A71EEA00AC0ED0B0AD0ED181A33
:10391000D0ED170A71EEE01A61EE811A81EE801A7D
:1039200031EE200A80ED0C0A8B7900EE103AB8EEE9
:10393000400A80ED0D0AC97900E010E000EE101A8F
:10394000521CB8EE400A80ED0E0A90F84410C0F800
:10395000F020A0F8464041F0030180F8441070BD0B
:1039600000FF7F4700F07F45704772B6FEE700001A
:10397000054805490839026842F0020202600868F9
:103980008004FCD5704700000C480258014801F043
:1039900001B8000084080024F0B503684FF6FC71FC
:1039A0006D4C426BD3F884508D4345EA8205C3F8D1
:1039B0008450036853F8845F068F25F47F0545EA39
:1039C00006451D60836B654D9F180268D2F88830EC
:1039D0008B4343EA8703C2F88830026852F8883F75
:1039E000868F23F4FE0343EA06431360066856F805
:1039F000A03FC26B8B4307EB420243EA8203336072
:103A0000076857F8A03FB0F8406023F4FE0343EA8C
:103A100006433B60D0E9103603FB06220368D3F867
:103A2000B0608E4346EA8206C3F8B0600368B0F81F
:103A30004860D3F8B07027F4FE0747EA0646C3F89B
:103A4000B060D0E91267036806FB0722D3F8AC60C8
:103A50008E4346EA8206C3F8AC60D0E91467036877
:103A600006FB0722D3F8F0608E4346EA8206C3F8CD
:103A7000F0600368B0F85860D3F8F07027F47C1752
:103A800047EA0646C3F8F0600368876D53F8C06FD5
:103A900002EB47028E4346EA820119600168B0F8E2
:103AA0005C20D1F8C03023F47C1343EA0242C1F811
:103AB000C020016890F86020D1F8C03023F07C531A
:103AC00043EA0262C1F8C020416B04EB8101C16688
:103AD000826B01EB82020267C36B02EBC302426797
:103AE000D0E91034634302EB83028267D0E91234D9
:103AF000634302EB8302C267D0E91434634302EBF1
:103B00008302C0F88020836D02EBC303C0F88430C9
:103B1000C46D826E544303EB8403C0F88830046E96
:103B2000544303EB8402C0F89020AA420AD9D0F88B
:103B30009C20032142F02002C0F89C2080F89810BD
:103B40000120F0BD002200E004C1D0F890308B428B
:103B5000FAD80020F0BD000000AC0040FCD30040CB
:103B6000F0B58E680C69D1E9005744EA0604DFB16C
:103B700045F080452C43866ED1E906C54F695E430A
:103B800091F8203045EA0C05B1F80CC0D0F884E07B
:103B9000002047EA0363104F1D430EEB860345EAFE
:103BA0000C45E3E8024511E044EA8544E3E71418D4
:103BB000155CA67894F803C094F801E0360445EA51
:103BC0000C6446EA0E252C43001D10C3CC683C5DF6
:103BD0008442ECD8F0BD00006CD50008082815D24E
:103BE000DFE800F00406080A0C0E101200207047EF
:103BF000012070470220704703207047042070475F
:103C0000052070470620704707207047082070473E
:103C1000012801D00020704700487047CC060024DE
:103C200003490968814201D101487047002070476B
:103C3000CC060024082815D2DFE800F00406080AA4
:103C40000C0E1012002070470120704702207047B0
:103C500003207047042070470520704706207047F6
:103C6000072070470820704770B5060016D00C4D2D
:103C7000002400BF04EB440005EB80014A6852B108
:103C8000337815F82000984205D18968304690476E
:103C900008B1012070BD641C082CEBD3002070BD5E
:103CA00018180124F0B54FF0FF3478B171B16AB142
:103CB000124D002303EB430605EB860677688F421F
:103CC00006D1B668964203D10320F0BD0120F0BDB5
:103CD000002C01DA07B91C465B1C082BEAD3002C28
:103CE00001DA0220F0BD04EB440305EB830405F880
:103CF00023000020C4E90112F0BD000018180124BF
:103D00000548602110B5FCF7D3FC03482021BDE82D
:103D100010406030FCF7CCBC1818012410B504002A
:103D20000ED0206860B1E17C61B101F0C9F90020DA
:103D3000A074627C2046217CBDE8104000F00CB8E5
:103D4000012010BD002010BD20B1017511B1026A23
:103D5000521C0262084670472DE9F8430400904661
:103D60000D4605D0206818B1A17C21B1002132E0B8
:103D70000120BDE8F883012D06D000214FF06076C8
:103D800025B1022D02D002E00121F7E7184E012DE6
:103D900001D0022D01D146F0D0060A460127009736
:103DA0003B4600F0C5FC08B1042114E020684246FF
:103DB000314600F0D6FC08B106210CE02068002254
:103DC000314600F03DFC08B1072104E0206801F015
:103DD0005EF928B105212046BDE8F843FFF7B4BFDE
:103DE0002574002084F81180A774E074BEE70000F9
:103DF0000D00800310B5FFF70BFF04000FD0206803
:103E000068B1A37C5BB100F05FFC002806D0A16A1A
:103E1000491CA1622168D1F89C10A16110BD01204C
:103E200010BD00002DE9F84F044601F0B3FA0090F0
:103E30003CB194F83500022806D08021616500204D
:103E4000E4E00120BDE8F88FC74DC74EC6491835DC
:103E500020683036DFF81483DFF814938842DFF8E7
:103E600014A3DFF814B328D0A84226D0B04224D03F
:103E7000404522D0484520D050451ED058451CD042
:103E8000BD4A1832904218D0BC4A904215D0BB4A65
:103E90001832904211D0B94A303290420DD0B74A10
:103EA0004832904209D0B54A6032904205D0B34AB8
:103EB0007832904201D0B14A9032026822F0010279
:103EC0000260206888422ED0A8422CD0B0422AD06E
:103ED000404528D0484526D0504524D0584522D0CA
:103EE000A54A183290421ED0A44A90421BD0A34A41
:103EF0001832904217D0A14A3032904213D09F4AD4
:103F0000483290420FD09D4A603290420BD09B4A7B
:103F10007832904207D0994A9032904203D0974A23
:103F2000A832904209D1026822F01E020260206885
:103F3000426922F08002426103E0026822F00E0230
:103F400002602768884938468F424DD0A8424BD03E
:103F5000B04249D0404547D0484545D0504543D070
:103F6000584541D08449183188423DD08349884220
:103F70003AD082491831884236D08049303188425F
:103F800032D07E49483188422ED07C496031884207
:103F90002AD07A497831884226D0784990318842AF
:103FA00022D07649A83188421ED0754988421BD05C
:103FB00073491431884217D071492831884213D08F
:103FC0006F493C3188420FD06D49503188420BD047
:103FD0006B496431884207D069497831884203D0FF
:103FE00067498C318F4214D1206E016821F48071B1
:103FF00001600EE001F0CEF90099401A052808D9B9
:10400000202262650321002084F8351084F83400F2
:1040100017E73868C007EDD1534A01212068904264
:104020002ED0A8422CD0B0422AD0404528D04845B6
:1040300026D0504524D0584522D04F4B18339842B3
:104040001ED04E4B98421BD04C4B1833984217D081
:104050004A4B3033984213D0484B483398420FD0E4
:10406000464B603398420BD0444B7833984207D08C
:10407000424B9033984203D0404BA833984208D12A
:1040800094F85C703F23A06D07F01F07BB4083606E
:1040900007E094F85C30A06D03F01F0301FA03F30E
:1040A0004360206890424DD0A8424BD0B04249D0E6
:1040B000404547D0484545D0504543D0584541D06C
:1040C0002D4A183290423DD02C4A90423AD02B4A89
:1040D0001832904236D0294A3032904232D0274AA4
:1040E000483290422ED0254A603290422AD0234A4C
:1040F0007832904226D0214A9032904222D01F4AF4
:10410000A83290421ED01E4A90421BD01C4A143244
:10411000904217D01A4A2832904213D0184A3C32A3
:1041200090420FD0164A503290420BD0144A64325B
:10413000904207D0124A7832904203D0104A8C3213
:1041400090420BD1D4E919024260E06E30B10268AE
:1041500022F480720260D4E91C024260002084F8DC
:10416000351084F834006DE610000240580002401B
:104170007000024088000240A0000240100402408B
:10418000085402582DE9F05F28B190F83510022943
:1041900004D0802141650120BDE8F09F764A764B2E
:1041A000DFF8D4C1183201683033744CDFF8D0B175
:1041B0006145744D744E754FDFF8D4E1DFF8D4A13A
:1041C000DFF8D49131D091422FD099422DD0A14225
:1041D0002BD0594529D0A94227D0B14225D0B94288
:1041E00023D0DFF8AC81A8F1780841451DD0DFF875
:1041F000A081A8F16008414517D0DFF89481A8F1AB
:104200004808414511D0DFF88881A8F130084145C0
:104210000BD0DFF87C81A8F11808414505D0714525
:1042200003D0514501D049452AD14FF0040880F808
:10423000358061451FD091421DD099421BD0A142CB
:1042400019D0594517D0A94215D0B14213D0B9425F
:1042500011D04F48783881420DD04D4860388142A6
:1042600009D04B484838814205D04948303881420E
:1042700001D047481838086820F00100086078E04D
:10428000D1F8008028F00108C1F800800168D1F859
:10429000008028F00E08C1F800800168614546D012
:1042A000914244D0994242D0A14240D059453ED09B
:1042B000A9423CD0B1423AD0B94238D0344A783AD7
:1042C000914234D0324A603A914230D0304A483A32
:1042D00091422CD02E4A303A914228D02C4A183A9A
:1042E000914224D0714522D0514520D049451ED05D
:1042F0002A4A91421BD0294A1432914217D0274AA8
:104300002832914213D0254A3C3291420FD0234AA1
:10431000503291420BD0214A6432914207D01F4A59
:104320007832914203D01D4A8C32914218D1026EEC
:104330000121136823F48073136090F85C30826D60
:1043400003F01F0399405160D0E919124A60C16E11
:1043500031B10A6822F480720A60D0E91C124A6006
:104360000122016D002380F8352080F8343001B13E
:104370008847002010E7000010000240580002406B
:104380007000024088000240A0000240B8000240D5
:1043900088040240A0040240B804024008540258B5
:1043A000406D70472DE9F84F04008C464FF0000037
:1043B000009014D094F83400012812D094F83550AD
:1043C0000120002184F83400012D0CD0C00260656A
:1043D0000120009084F834100098BDE8F88F012087
:1043E000FBE70220F9E78C4D0226206884F835604F
:1043F000A8428A4D61658A4E8A4FDFF82C82DFF829
:104400002C92DFF82CA2DFF82CB226D0A84224D0C0
:10441000B04222D0B84220D040451ED048451CD0E2
:1044200050451AD0584518D08349884215D0824942
:104430001831884211D08049303188420DD07E49F0
:104440004831884209D07C496031884205D07A4998
:104450007831884201D078499031016821F001011A
:10446000016061462046FEF799FB6B49206888424F
:104470002CD0A8422AD0B04228D0B84226D04045FD
:1044800024D0484522D0504520D058451ED06A4AF5
:1044900090421BD0684A1832904217D0664A303298
:1044A000904213D0644A483290420FD0624A603240
:1044B00090420BD0604A7832904207D05E4A9032E8
:1044C000904203D05C4AA83290420CD1026822F09C
:1044D0001E0242F016020260206C88B12068026859
:1044E00042F008020BE0026822F00E0242F00A02DB
:1044F0000260206C20B12068026842F00402026071
:10450000206888424BD0A84249D0B04247D0B84238
:1045100045D0404543D0484541D050453FD058450F
:104520003DD0454A90423AD0434A1832904236D064
:10453000414A3032904232D03F4A483290422ED0E7
:104540003D4A603290422AD03B4A7832904226D08F
:10455000394A9032904222D0374AA83290421ED037
:10456000364A90421BD0354A1432904217D0334A13
:104570002832904213D0314A3C3290420FD02F4A19
:10458000503290420BD02D4A6432904207D02B4AD1
:104590007832904203D0294A8C3290420DD1206E5D
:1045A0000268D20303D5026842F480720260E06EB2
:1045B00018B1026842F4807202602068884226D0F6
:1045C000A84224D0B04222D0B84220D040451ED0CC
:1045D00048451CD050451AD0584518D01649884235
:1045E00015D015491831884211D01349303188420D
:1045F0000DD011494831884209D00F4960318842B5
:1046000005D00D497831884201D00B4990310168BD
:1046100041F001010160DFE6100002402800024085
:1046200040000240580002407000024088000240F2
:10463000A0000240B8000240100402400854025892
:1046400010B590F89830012B09D0022B07D0D0F884
:104650009C1041F00201C0F89C10012010BD0368BD
:104660009C6D0C4203D1DC6D44F0010404E09C6DB0
:1046700031EA04041FD00324DC658B0505D50368EB
:10468000D3F8E0401443C3F8E0404B0505D5036878
:10469000D3F8E4401443C3F8E4400068084A01EA50
:1046A0000203446D074A1C434465106840EA917058
:1046B0001060002010BDDC6D44F00204DCE7000057
:1046C000FFFFCF3F14A8004070B5044690F8980053
:1046D000022804D0D4F89C0040F008000DE02068C7
:1046E000D0F8C03013F07C5F0BD0D0F8C4309B0200
:1046F0000CD5D4F89C0040F40070C4F89C00012054
:1047000070BDD4F89C0040F02000F6E7D0F8C4005B
:10471000C0F3044520462B46FFF722FA216801200A
:10472000A840C1F8D000C4F89400002070BD7047C4
:1047300030B590F89850039C012D07D0D0F89C100C
:1047400041F00401C0F89C10012030BD0D0101684A
:1047500045EA820040EA43002043C1F8800000207F
:1047600030BD90F89830012B09D0022B07D0D0F83B
:104770009C1041F00201C0F89C10012070470068B5
:10478000012A826D03D00A438265002070478A4364
:10479000FAE710B50446FFF743FA002807D0D4F82B
:1047A0009C20092182610175016A491C016210BDCA
:1047B00010B50C46FFF734FA00280BD0C461016A2B
:1047C000A20101F10101016204D5416A0122491CE3
:1047D0004162C27410BD00000068402905D0D0F8C5
:1047E000B40000BF00F07F007047D0F8A400F9E7E4
:1047F000F0B590F898500024022D04D0D0F89C1009
:1048000041F0080130E0402905D0412930D0056D44
:104810008D4220D94DE00568D5F8A04014F4FE0F74
:1048200019D0D5F8A44064061AD0D5F8A440D5F81C
:10483000A460C4F30524F6010AD5D5F8A06016F0EB
:10484000004F05D5D5F8A050641CC5F306452C4093
:10485000466F456C2BE0D0F89C1041F0200103E03E
:10486000D0F89C1041F48071C0F89C100120F0BD7C
:104870000568D5F8B04014F4FE0FECD0D5F8B4407C
:104880006406EDD0D5F8B440D5F8B460C4F305247F
:10489000F6010AD5D5F8B06016F0004F05D5D5F869
:1048A000B050641CC5F306452C40866FC56C65434B
:1048B00002E0456DC66F4D4306EB85052E6816F088
:1048C000804656602E6836D026F060461660D5F8D1
:1048D00000C000262D4F0CF0005CC2F808C0D5F8CF
:1048E00000C00CF0004CC2F810C0B5F804C01FFAAC
:1048F0008CFCC2F81CC0D5F804C0CCF3034CC2F841
:104900000CC0D5F804C00CF4801CC2F814C0D5F853
:1049100004C00CF4001CC2F818C0D5F804C0CCF3D5
:10492000066CC2F820C0D5F804C008354FEADC7C1C
:10493000C2F824C007E0C6F38A46C7E715F806C0E8
:1049400003F806C0761CD2F80CC017F80CC0B445AA
:10495000F4D840290AD041290CD020294FF0010277
:104960000CD200688A40C0F898200DE00068C0F8BA
:10497000A84009E00068C0F8B84005E0006801F010
:104980001F018A40C0F89C200020F0BD6CD50008B3
:10499000704700002DE9FF5FDFF80CB304460BF110
:1049A0000401DBF8000025680F68AA468007D5F8E7
:1049B0005090696DD5F850806E6D2A6DD5F854C051
:1049C0002B6D00EA8770009009F470496F6D286DB7
:1049D00001EA09010191DAF85410DAF85490DAF892
:1049E000505008F00F0806EA0806029602F0F0029E
:1049F00003F071536FEA09061F4000F060700CEA83
:104A0000020CCDF80CC0F20501EA00090CD4E84311
:104A1000C00509D400214FF48073CAF85030CBF898
:104A200000102046FFF7B4FF700512D4E84340059C
:104A30000FD4206800234FF48068D0F8DC20D0F831
:104A4000E410C0F85080CBF800301140204600F050
:104A50007CFBDFF858A2009850B12268830F00EA6F
:104A60000A001065CBF8003020460099FFF75FFE82
:104A7000019850B12268830F00EA0A001065CBF854
:104A800000302046019900F062FB029850B1226884
:104A9000830F00EA0A001065CBF800302046029927
:104AA00000F082FA039850B12268830F00EA0A00EE
:104AB0001065CBF800302046039900F0E7FA300586
:104AC0000CD4E843000509D4236800204FF40062A9
:104AD0001A65CBF80000204600F03AFBB00512D46E
:104AE000E84380050FD4206800234FF40078D0F805
:104AF000D820D0F8E010C0F85080CBF8003011403A
:104B0000204600F023FB30030CD4E843000309D413
:104B1000236800204FF400221A65CBF800002046DD
:104B200000F040FAF0030CD4E843C00309D4236832
:104B300000204FF480321A65CBF80000204600F0C8
:104B400003FB70030CD4E843400309D4226800201F
:104B50004FF480231365CBF80000204600F0F3FAF1
:104B6000B0030FD4E84380030CD4236800204FF433
:104B700000321A65CBF80000D4F89C0040F08000A9
:104B8000C4F89C00B9F1000F0BD022684FEA99736A
:104B900009EA0A001065CBF8003049462046FFF7C5
:104BA00007FE5FB12268BB0F07EA0A001065CBF869
:104BB0000030D4F89C003843C4F89C003C4920687D
:104BC000884268D1606881468068800763D0D9F8E0
:104BD0002060D9F82410D9F82080D9F82400D9F819
:104BE00020C0D9F82470D9F82030D9F82450D9F849
:104BF000202003F4FC4306F00F0AD9F824601D407E
:104C0000D9F824B008F030080CF4C07C02F4F0228B
:104C100011EA0A0100EA080807EA0C0706EA020698
:104C2000D9F820A004D0C9F82010204600F088FA56
:104C3000B8F1000005D0616808624146204600F0E6
:104C400081FA6FEA0B0040060ED46FEA0A004006B4
:104C50000AD460684021C36BC26B01622046190C04
:104C600002F03F0200F06DFA2FB16068076239462A
:104C7000204600F064FA35B160680562D4F89C0003
:104C80002843C4F89C0036B160680662D4F89C00E2
:104C90003043C4F89C00D4F89C00002802D0204681
:104CA000FFF777FDBDE8FF9F10A80040FFFFCF3F53
:104CB00000A000402DE9F04194B08D494C220446FB
:104CC0006846FBF799FC64B18A4D2068A84202D17E
:104CD00000F58070606094F898004FF0000820B1F3
:104CE00008E0012014B0BDE8F081204684F89980E6
:104CF00000F002F92068816921F01001816100F063
:104D000049FB0327064604E000F044FB801B0A2809
:104D100011D8206880690007F6D42068816941F0C5
:104D20000101816100F036FB06460DE000F032FB28
:104D3000801B0A2808D9D4F89C0040F00100C4F870
:104D40009C0084F89870CCE720688069C007EDD09B
:104D50002068816941F002018161207C012820687E
:104D6000816937D041F040018161607C0128206871
:104D7000816932D021F480418161A07C01282068C2
:104D800081692DD041F4805181612068A2688169D8
:104D900021F44071114381612068816921F0A401EF
:104DA00081612068016921F010010161E06801283A
:104DB00019D010B302281BD02068816941F080010E
:104DC00081612068016941F010010161E0680328F8
:104DD0000ED012E021F04001C6E741F48041CBE75C
:104DE00021F48051D0E72068816941F0040103E09B
:104DF0002068816941F020018161207E6FF0FF020F
:104E0000D4E90773A68A1102400602EB0727A0F136
:104E10000070384327685B1E184301EB0646304399
:104E2000F861A068B0F5407F11D104F12800A68C8C
:104E30006FF00F0C89C801EB0641401E02EB032204
:104E4000104322680CEB071318430843D060206E10
:104E500030B12068626ED0F8C0101143C0F8C010A5
:104E6000D4E917126846D14209D02168A36E51F8DF
:104E7000C82F50F8233022F007021A430A60216C31
:104E800049B12168626C51F8BC3F50F8226023F0B0
:104E9000070232430A60A16C51B12168E36C51F8FA
:104EA000BC2F50F8233022F0700242EA03120A604D
:104EB000216D51B12168626D51F8BC3F50F822005C
:104EC00023F4E06242EA002008602068A84204D18E
:104ED0006068816821F003018160C4F89480012139
:104EE000C4F89C8084F898102046FEF755FDF9E63A
:104EF0007CD5000800A0004070B5B6B0044614216F
:104F000030A8FBF7D5FBC0216846FBF7D1FB22494F
:104F1000206888423ED1002102240D464FF4004013
:104F20008DE813001422C026CDE90324CDE90761E2
:104F300080031C9004230991CDE90534684600F0F4
:104F4000CBFC08B1FEF711FD1448016841F48071F3
:104F50000160006800F48070359010480C380168DA
:104F600041F008010160006830AA092100F0080042
:104F70003590032082E83100CDE93351084830A94B
:104F800000F0E8F800220521132000F0F3FA1320C6
:104F900000F0E2FA36B070BD00A00040EC440258C8
:104FA000000C0258704700002DE9F041804635485A
:104FB00092B00268424529D1334C06460807206862
:104FC00000F101002060E16102D56069401C606170
:104FD00048074FF000054FF080474CD5A069401CB2
:104FE000A06148E028216846FBF762FB18210AA867
:104FF000FBF75EFB40216A4610AB404610951195C9
:10500000FFF7F6FB28B12069401C206112B0BDE813
:10501000F0816068401C6060019808B1B84227D1F7
:10502000029828BB30798DF828000198B84201D148
:10503000012000E000208DF829008DF82A5000980A
:105040000E900398FEF7CAFD08288DF82B0002D9B0
:1050500008208DF82B00C2B210A90CA8FBF7CCFADF
:105060000AA8FEF701FE18B1A068401CA06002E08B
:10507000E068401CE06040214046FFF7ADFB00289F
:10508000B0D1C3E7CC06002478180124704790F80B
:105090009810012907D0D0F89C1041F00401C0F805
:1050A0009C1001207047022180F8981000220168AE
:1050B0008B6923F001038B61C0F89C201046704778
:1050C00010B590F898100022022906D0D0F89C1054
:1050D00041F00801C0F89C1012E0016803238C69BC
:1050E00044F001048C6101680DE0322A0AD900BF46
:1050F000D0F89C1041F00101C0F89C1080F8983065
:10510000012010BD521C8C69E407EED08C6900228E
:1051100024F010048C61016802E0322AE8D8521CA5
:105120008C692407F9D48C690023012244F002041D
:105130008C61C0F8943080F89820184610BD7047F4
:1051400070477047704770477047704770477047A7
:10515000704700002DE9F84F03247F4D00234FF0E6
:1051600001094FF0B04B4FF00F0AEDE009FA03F6DA
:1051700032407AD00F7907F00307012F01D0022FB8
:1051800019D187684FEA430ED1F80CC004FA0EF823
:1051900027EA08070CFA0EFC4CEA070CC0F808C016
:1051A000D0F804C00F792CEA060CC7F300179F4013
:1051B00047EA0C0747600E79F643B60702D18E68BE
:1051C000012E0BD0C6684FEA43088F6804FA08FC2A
:1051D00026EA0C0607FA08F73743C7600E7906F08F
:1051E0000306022E12D1DE080F694FEA437C00EB62
:1051F0008606B646366A4FEADC6C0AFA0CF807FAFD
:105200000CF726EA08063743CEF820700F790668B7
:105210004FEA430807F0030704FA08FC07FA08F707
:1052200026EA0C06374307604E6816F4403F1CD050
:105230004A4E376847F00207376036689F0706F026
:105240000206009623F0030606F1B046B6463F0F6D
:10525000D6F80864DFF808810AFA07FC404526EA18
:105260000C0603D14FF0000C41E06CE0DFF8F4C015
:10527000604502D14FF0010C39E0DFF8ECC0604529
:1052800002D14FF0020C32E0DFF8E0C0604502D1FD
:105290004FF0030C2BE0DFF8D8C0604502D14FF08F
:1052A000040C24E0DFF8CCC0604502D14FF0050CBF
:1052B0001DE0DFF8C4C0604502D14FF0060C16E0D7
:1052C000DFF8B8C0604502D14FF0070C0FE0DFF8FF
:1052D000B0C0604502D14FF0080C08E0DFF8A4C070
:1052E000604502D14FF0090C01E04FF00A0C0CFAB6
:1052F00007FC4CEA060CCEF808C44F68DBF80060E7
:10530000FF0226EA020600D516435F46CBF800608E
:10531000D1F804C0DBF804605FEA8C2C26EA0206B0
:1053200000D516437E606E684F6826EA0206BF030A
:1053300000D516436E602E684F6826EA0206FF030A
:1053400000D516432E605B1C0A6832FA03F67FF420
:105350000DAFBDE8F88F000080000058F4440258FB
:10536000000002580004025800080258000C0258BD
:10537000001002580014025800180258001C02586D
:10538000002002580024025801480068000C7047B1
:105390000010005C01488068704700001000002485
:1053A000024881680278114481607047100000242F
:1053B000032010B500F0FEF801F006F90F4A10497D
:1053C00014681368C4F3032203F00F038A5CC95CFA
:1053D00002F01F0201F01F01D0400A4A20FA01F139
:1053E0001160094908600F2000F010F808B1012091
:1053F00010BD00F09FF8002010BD000018440258B6
:10540000F0D50008200000241C00002410B510284E
:1054100004468AB02CD200220146372000F0AAF8B8
:10542000372000F099F8174804601748016841F0E8
:1054300020010160006809A900F02000089068467A
:1054400001F04EF80598B0B101F09AF840000F490C
:1054500000220F4CB0FBF1F10E4840F2E73304603C
:10546000C0E90332491EC0E9011201F054FC28B121
:1054700001200AB010BD01F083F8E8E7054801F00B
:105480007DFCF6E714000024E844025840420F0077
:1054900000140040B8090024154BF0B5083B4278D1
:1054A00013491A600B680A1F23F001030B6043685D
:1054B0001360057BC67A827A437B2D07847B45EA9D
:1054C0000665C77B90F809C0067A90F800E045EAC7
:1054D000C24040EA834040EA444040EA074040EA94
:1054E0000C2040EA460040EA0E000860F0BD0000D3
:1054F000A0ED00E0BFF35F8F044800210368034A7A
:1055000023F48033036070321160704724ED00E0B3
:10551000074A40F00100064970321060086840F404
:1055200080300860BFF34F8FBFF36F8F704700006C
:1055300024ED00E0074882B0016841F002010160FB
:10554000006800220F2100F002000090901E02B0BF
:1055500000F010B8F4440258002809DB410900F0BB
:105560001F028900012001F1E0219040C1F80001F3
:10557000704700000E4BF0B41B680D46C3F30223C6
:10558000C3F10706042E00D90426191D072901D2EC
:10559000002300E0DB1E012404FA06F19C40491EB2
:1055A0002940641E994014402143F0BC05F044BDDD
:1055B0000CED00E0064900F0070210B54FF6FF04BD
:1055C0000868044B204040EA02201843086010BDE0
:1055D0000CED00E00000FA05134970B50A68D243EB
:1055E000520705D5096801F00701814213D118E07F
:1055F0000A6822F0070202430A60FFF7CBFE0A4D59
:105600004FF47A760446083D07E000BFFFF7C2FE7C
:10561000001BB04201D9012070BD2868C04380043E
:10562000F4D4002070BD00000C48025810B500F002
:1056300085FF05490968054AC1F30211515C01F073
:105640001F01C84010BD000020440258F0D50008DA
:10565000494930B5484C0B1D0A68143409681D6867
:10566000246802F00303C5F30012C1F30531C4F34B
:10567000CC04002914FB02F200EE102AF8EE400AD6
:1056800075D03F4A9FED3D1AB7EE000A6BB1DFEDD2
:105690003D1A012B01D0022B64D002EE101A1168C2
:1056A000F8EE422A81EEA22A21E0334C283C2368FE
:1056B0009B0612D5344B246801EE901A1168C4F38E
:1056C000C104F8EE612AE34001EE903AC1F308010B
:1056D000F8EE611A81EEA22A0BE001EE901ADFEDDE
:1056E0002B2A00BFF8EE611A116882EEA12AC1F3DD
:1056F000080101EE901A1168F8EE611A40EE811A65
:1057000071EE800A62EE200AC1F3462101EE101A02
:10571000B8EE411A31EE001AC0EE811ABCEEE11A61
:1057200080ED001A1168C1F3064101EE101AB8EEBF
:10573000411A31EE001AC0EE811ABCEEE11A80ED7A
:10574000011A1168C1F3066101EE101AB8EE411A90
:1057500031EE000A80EE801ABCEEC10A80ED020A2A
:1057600030BD04E001EE901ADFED092ABAE700210E
:10577000016041608160F3E728440258000000396D
:10578000384402580024744A0090D0030024744C1A
:105790000024F44B494930B5484C0B1D0A681C34B1
:1057A00009681D68246802F00303C5F30022C1F3F1
:1057B0000551C4F3CC04002914FB02F200EE102AB8
:1057C000F8EE400A75D03F4A9FED3D1AB7EE000A49
:1057D0006BB1DFED3D1A012B01D0022B64D002EE3C
:1057E000101A1168F8EE422A81EEA22A21E0334C09
:1057F000283C23689B0612D5344B246801EE901A8E
:105800001168C4F3C104F8EE612AE34001EE903A56
:10581000C1F30801F8EE611A81EEA22A0BE001EE55
:10582000901ADFED2B2A00BFF8EE611A116882EEA4
:10583000A12AC1F3080101EE901A1168F8EE611A6D
:1058400040EE811A71EE800A62EE200AC1F3462111
:1058500001EE101AB8EE411A31EE001AC0EE811AAC
:10586000BCEEE11A80ED001A1168C1F3064101EEA9
:10587000101AB8EE411A31EE001AC0EE811ABCEED1
:10588000E11A80ED011A1168C1F3066101EE101AE8
:10589000B8EE411A31EE000A80EE801ABCEEC10A61
:1058A00080ED020A30BD04E001EE901ADFED092A16
:1058B000BAE70021016041608160F3E728440258A3
:1058C00000000039404402580024744A0090D0037C
:1058D0000024744C0024F44B2DE9FE4F0546DFF8FC
:1058E000E48350F8081B0024F64FC943019005F1EA
:1058F0002800264608F12408009008011DD4A86E4F
:1059000050B1B0F5801F0CD0B0F5001F0ED0B0F52F
:10591000401F1ED001240FE0386840F4003038608A
:1059200017E00198022103F003F903E00098022137
:1059300003F08EF904000CD026462888C043C00529
:1059400023D4A86D05281ED2DFE800F00C11161B29
:105950001B00AA6ED8F8001021F440111143C8F8BA
:105960000010EAE7386840F40030386009E0019838
:10597000002103F0DDF803E00098002103F068F94E
:10598000044674B100E0012426462888C0438005FF
:1059900028D4E86D80281ED00CDC90B140280ED1B0
:1059A00014E0AA6DD8F8001021F007011143C8F8DF
:1059B0000010EAE7C02813D0B0F5807F10D0012492
:1059C0000FE0386840F40030386009E001980021A9
:1059D00003F0AEF803E00098002103F039F9044623
:1059E0009CB126462888DFF8DC92C04309F12C09D7
:1059F00040052CD4D5F8A800B0F5800F20D00DDCE0
:105A0000A0B1B0F5001F0FD115E0EA6DD8F8001075
:105A100021F4E0711143C8F80010E3E7B0F5C00FBE
:105A200013D0B0F5000F10D001240FE0386840F417
:105A30000030386009E00198002103F079F803E0B4
:105A40000098002103F004F904467CB1264628881A
:105A5000C04300052DD4D5F8AC00B0F1007F21D0B3
:105A60000EDCA8B1B0F1807F10D116E0D5F8A820E7
:105A7000D9F8001021F460011143C9F80010E6E7DD
:105A8000B0F1407F13D0B0F1806F10D001240FE04F
:105A9000386840F40030386009E00198002103F0D4
:105AA00047F803E00098002103F0D2F8044674B1EF
:105AB00026462868C04380011FD4E86CD8B110285E
:105AC0000FD0202812D0302815D0012414E0D5F8AA
:105AD000AC20D9F8001021F0E0611143C9F80010A2
